:100000004AC064C0CBC162C061C060C05FC05EC096
:100010005DC05CC05BC05AC059C058C057C056C014
:1000200055C009022200010100A0140904000001CA
:1000300003000000092101010001221E00070581C3
:10004000030800641201100100000008C016DF055B
:10005000000101020001140344004800540078002C
:10006000780012036F0062006400650076002E00C5
:10007000610074000403090405060900A1010520BC
:100080000A6905751095015500B10209267510958C
:1000900001550F8103C011241FBECFE5D1E0DEBFA3
:1000A000CDBF10E0A0E6B0E0E6EBF9E002C00590BD
:1000B0000D92A236B107D9F720E0A2E6B0E001C068
:1000C0001D92A939B207E1F7CDD373C499CFCF936D
:1000D000C62F20916D0024FF1BC020916E0038E8D0
:1000E000232720936E00AFE6B0E09C01F9019191C7
:1000F0009D939F019C2F9E1B980F1916BCF36C2F8C
:100100008FE690E047D1CC5FC0936D00CF9108950A
:100110002AE520936D00E7CFCF93DF9360917F00B6
:10012000635067FDAFC080917C00CCE0D0E0C81B7D
:10013000D109CD57DF4F80917B008D3209F0EFC0A0
:10014000683009F099C083EC809362008AE580935F
:10015000610010927A008881807671F0CE0165D2BC
:100160008F3F09F481C09F81911184C09E819817AF
:1001700008F080C0892F7EC02A8110926B0099817F
:1001800091110AC010926C002BE630E082E03093AF
:100190007E0020937D00E7CF953029F420938000E6
:1001A0002BE630E0F4CF963009F047C09B819130C8
:1001B00041F484E490E090937E0080937D0082E19E
:1001C00009C0923059F482E290E090937E008093CF
:1001D0007D0082E290E490937A00C5CF9330C9F419
:1001E000211108C084E790E090937E0080937D0009
:1001F00084E0F0CF213019F482E690E0DCCF2230A9
:1002000049F786E590E090937E0080937D008CE036
:10021000E1CF913241F484E390E090937E008093AB
:100220007D0089E0D7CF9232A9F688E790E09093DD
:100230007E0080937D008EE1CDCF983071F09930B3
:1002400019F420938200ACCF9A3059F09B3009F01A
:10025000A7CF9BE490936E00A3CF22E830E081E02B
:1002600096CF2BE630E0FBCF988197FD8E8190E80A
:1002700090937A008093600080917F00181614F4A8
:1002800010927F008091610084FF3CC080916000EB
:100290008F3FC1F1C82F893008F0C8E0982F9C1B10
:1002A000909360009091620028E8922790936200FA
:1002B0008823E1F020917D0030917E0080917A00CA
:1002C00086FF3FC0F9019C2FA3E6B0E084918D9397
:1002D00031969150D9F72F5F3F4F8FEF8C0F820FE0
:1002E000932F911D90937E0080937D006C2F83E669
:1002F00090E050D0CC5FCC3019F08FEF809360004D
:10030000C093610084E199B3907C31F48150D9F7B6
:100310001092800010927900DF91CF910895809122
:100320007A0087FFA9CFCE0173D18F3F21F48EE1F0
:1003300080936100A1CF882309F49ECF10926000C2
:100340009BCFD9019C2FE3E6F0E08D9181939150F2
:10035000E1F7C1CF979A8BB780618BBFEDE6F0E0F4
:100360008BE481838AE580830895A82FB92F80E0EC
:1003700090E041E050EA609530E009C02D9182277D
:100380009795879510F084279527305EC8F36F5FA7
:10039000A8F30895EADF8D939D930895CF93CFB787
:1003A000CF93C395CF9BE9F7CF9B09C0CF9B07C0E5
:1003B000CF9B05C0CF9B03C0CF9B01C0A3C0DF93E1
:1003C000C0917C00DD27CD57DF4FCF9B02C0DF916E
:1003D000EBCF2F930F931F9309B32FEF07FB20F958
:1003E0004F933F9319B34FEF012707FB21F93BE0F0
:1003F00031C04E7F012F19B3216028C0102F4D7FCF
:100400002260000009B329C04B7F2460012F000047
:1004100019B32BC019B3477F28602AC04F7E09B398
:1004200020612CC04F7D19B320622FC04F7B09B3D0
:10043000206432C0422709B349934FEF00001027D0
:1004400017FB20F919B3107CC9F1297F91F201271C
:1004500007FB21F909B3237F89F2315058F11027A6
:1004600017FB22F919B3277E79F2012707FB23F93D
:100470002F7C81F209B3102717FB24F92F7971F231
:1004800000C019B3012707FB25F92F7359F200C0EB
:1004900009B3102717FB26F9223040F200C019B328
:1004A000012707FB27F9243028F64F77206819B376
:1004B0000000F9CF10E11ABF002719C03B50319559
:1004C000C31BD04010E11ABF0881033CF9F00B3484
:1004D000E9F0209179001981110F1213EDCF4A81B3
:1004E000441F093641F10D3211F0013E29F7009306
:1004F00081003F914F911F910F912F91DF91CAB7CA
:10050000C4FD4FCFCF91CFBFCF91189520918100DF
:10051000222379F310917F00112369F534306AF1B9
:1005200030937F0020937B0010917C003BE0311BD7
:1005300030937C0022C000917F000130E4F40AE592
:100540004F7049F43091610034FD19C0009361008F
:10055000C2E6D0E018C030916D0034FD10C00093A9
:100560006D00CEE6D0E00FC02795A8F45150A9F455
:10057000220F0000F9CF4AE503C042ED01C0432F2E
:10058000C4E1D0E032E01AB3106CDF9A1ABB0BB3AF
:1005900020E410EC5F93012756E00BBB279520F475
:1005A000515021F4220FF9CF012756E000003B5AA9
:1005B0000BBBD0F2279528F4515029F4220F0000EC
:1005C000F9CF012756E027950BBB20F4515021F4B9
:1005D000220FF9CF012756E0299133230BBB21F6D7
:1005E0000F7310918000110FC651D0400BBB11F05A
:1005F0001093790010E11ABF00681AB31F73402FDF
:100600004F735F9100C000C00BBB1ABB4BBB71CFD7
:100610002FEF20937F00DC01EC91F0E011968C919C
:10062000808310927F0081E008958FEF0895CF932B
:10063000DF930F92CDB7DEB7898380916D0084FF81
:1006400008C061E0CE01019642DD0F90DF91CF91AD
:10065000089562DDA895F1CF2F923F924F925F925D
:100660006F927F928F929F92AF92BF92CF92DF92C2
:10067000EF92FF920F931F93CF93DF93CDB7DEB727
:1006800060970FB6F894DEBF0FBECDBF19012A01E7
:100690003B014C010E87A0E080D101F580E3C7DF6C
:1006A0009E858AE0911101C080E260960FB6F894B1
:1006B000DEBF0FBECDBFDF91CF911F910F91FF9095
:1006C000EF90DF90CF90BF90AF909F908F907F90F2
:1006D0006F905F904F903F902F90A9CFCE010196E1
:1006E0009C878B870A96FE0131961192E817F907CD
:1006F000E1F7E0E091E09E0F9D8781E090E08C0FB4
:100700009D1F8E0F911DE7FD9A95988B8F878AE02C
:10071000A82EB12CC12CD12CE12CF12C00E010E042
:100720009101A201B301C401CFD0205DEF85F8890A
:1007300020839101A201B301C401C8D069017A01EB
:100740008B01B82FF92FED859101A201B301C401EE
:10075000A9E023D109F078F44E01FBE08F0E911C43
:10076000F40182914F01811162DF8B859C85881590
:100770009905B1F795CF1601270138018B2E9F2ED1
:10078000B9CF7F928F929F92AF92BF92CF92DF921A
:10079000EF92FF920F931F93CF93DF93CDB7DEB706
:1007A0002A970FB6F894DEBF0FBECDBFE22FB32E4F
:1007B0008A01762EF72F982EA92EA0E0EED0B9F45C
:1007C00080E335DF8AE02A960FB6F894DEBF0FBECD
:1007D000CDBFDF91CF911F910F91FF90EF90DF90F0
:1007E000CF90BF90AF909F908F907F9020CFCE0101
:1007F00001967C016E019BE0C90ED11CC701DC0192
:100800001D92CD01AC15BD05D1F7812C8E2F8F70B7
:10081000282D082C000C330B83942E0D3F1D8A309D
:10082000F8F4805DD9018C932E2F3B2DA801672D04
:100830007F2F892D9A2D04E095D0E22FB32E8A01C7
:10084000762EF72F982EA92EA0E0A7D0F9F6F60164
:1008500082916F018111EBDEEC14FD04C1F7B2CF80
:10086000895CE0CF00D0CDB7DEB73C9A379A86B12D
:10087000876086B91F9A359A369A88E198E20FB652
:10088000F894A89581BD0FBE91BD64DDD79A80E034
:100890008150C1F4D7987894A895349B11C0809169
:1008A0006D0084FF0DC0349A84B190E09A838983EF
:1008B00025B1922B9A83898362E0CE01019607DCF1
:1008C0002BDCEACFA895E4CF689401C0E8948F921E
:1008D0009F92CF93DF9305D0DF91CF919F908F9020
:1008E000089588249924F401E401B0E41B2ED40176
:1008F0009D158E049F04E007F10738F4FC014B01BD
:10090000CA01B901AD019E011694220F331F441F85
:10091000551F661F771F881F991F881C991CEE1F83
:10092000FF1FCC1FDD1FAA1FBB1F8A149B04EC05F1
:10093000FD05CE05DF05A007B10748F08A189B0822
:10094000EC09FD09CE09DF09A00BB10B21601A9457
:10095000E1F62EF49401AF01BE01CD01000C089523
:1009600097FD1094002E083098F00850232F342F54
:10097000452F562F672F782F892F912DF4CF15945F
:1009800097958795779567955795479537952795C7
:100990000A95AAF71124002D08950024A7FD0094BC
:1009A0002A17300540055005600570058005900543
:0609B0000895F894FFCF4A
:0209B600FF5AE6
:00000001FF
