:100000004AC064C0CBC162C061C060C05FC05EC096
:100010005DC05CC05BC05AC059C058C057C056C014
:1000200055C009022200010100A0140904000001CA
:1000300003000000092101010001221E00070581C3
:10004000030800641201100100000008C016DF055B
:10005000000101020001140344004800540078002C
:10006000780012036F0062006400650076002E00C5
:10007000610074000403090405060900A1010520BC
:100080000A6905751095015500B10209267510958C
:1000900001550F8103C011241FBECFE5D1E0DEBFA3
:1000A000CDBF10E0A0E6B0E0E2E7F9E002C00590C5
:1000B0000D92A236B107D9F720E0A2E6B0E001C068
:1000C0001D92A939B207E1F7ABD351C499CFCF93B1
:1000D000C62F20916D0024FF1BC020916E0038E8D0
:1000E000232720936E00AFE6B0E09C01F9019191C7
:1000F0009D939F019C2F9E1B980F1916BCF36C2F8C
:100100008FE690E047D1CC5FC0936D00CF9108950A
:100110002AE520936D00E7CFCF93DF9360917F00B6
:10012000635067FDAFC080917C00CCE0D0E0C81B7D
:10013000D109CD57DF4F80917B008D3209F0EFC0A0
:10014000683009F099C083EC809362008AE580935F
:10015000610010927A008881807671F0CE0143D2DE
:100160008F3F09F481C09F81911184C09E819817AF
:1001700008F080C0892F7EC02A8110926B0099817F
:1001800091110AC010926C002BE630E082E03093AF
:100190007E0020937D00E7CF953029F420938000E6
:1001A0002BE630E0F4CF963009F047C09B819130C8
:1001B00041F484E490E090937E0080937D0082E19E
:1001C00009C0923059F482E290E090937E008093CF
:1001D0007D0082E290E490937A00C5CF9330C9F419
:1001E000211108C084E790E090937E0080937D0009
:1001F00084E0F0CF213019F482E690E0DCCF2230A9
:1002000049F786E590E090937E0080937D008CE036
:10021000E1CF913241F484E390E090937E008093AB
:100220007D0089E0D7CF9232A9F688E790E09093DD
:100230007E0080937D008EE1CDCF983071F09930B3
:1002400019F420938200ACCF9A3059F09B3009F01A
:10025000A7CF9BE490936E00A3CF22E830E081E02B
:1002600096CF2BE630E0FBCF988197FD8E8190E80A
:1002700090937A008093600080917F00181614F4A8
:1002800010927F008091610084FF3CC080916000EB
:100290008F3FC1F1C82F893008F0C8E0982F9C1B10
:1002A000909360009091620028E8922790936200FA
:1002B0008823E1F020917D0030917E0080917A00CA
:1002C00086FF3FC0F9019C2FA3E6B0E084918D9397
:1002D00031969150D9F72F5F3F4F8FEF8C0F820FE0
:1002E000932F911D90937E0080937D006C2F83E669
:1002F00090E050D0CC5FCC3019F08FEF809360004D
:10030000C093610084E199B3907C31F48150D9F7B6
:100310001092800010927900DF91CF910895809122
:100320007A0087FFA9CFCE0151D18F3F21F48EE112
:1003300080936100A1CF882309F49ECF10926000C2
:100340009BCFD9019C2FE3E6F0E08D9181939150F2
:10035000E1F7C1CF979A8BB780618BBFEDE6F0E0F4
:100360008BE481838AE580830895A82FB92F80E0EC
:1003700090E041E050EA609530E009C02D9182277D
:100380009795879510F084279527305EC8F36F5FA7
:10039000A8F30895EADF8D939D930895CF93CFB787
:1003A000CF93DF93C395CF9BE9F7CF9B11C0CF9B32
:1003B0000FC0CF9B0DC0CF9B0BC0CF9B09C0CF9B65
:1003C00007C0CF9B05C0CF9B03C0CF9B01C083C09C
:1003D0006F93C0917C00DD27CD57DF4F2F9320E432
:1003E00000C065E0CF9B03C02F916F91DECF0F93CC
:1003F0001F934F9345E55F9355E53F933BE010E432
:1004000009B3007C2EC06A95C9F03150D8F109B308
:10041000007C01130BC008942795299320E45555BF
:1004200000F46A9569F701E069B30BC0102F66E02C
:100430002695299320E4555518F3E2CF0FEF69B3C1
:100440000000162F455500F0404066E0107C00305B
:10045000E2F221F0000009B3007C03C009B3007C84
:10046000A9F0011309C00894279568F200C06A95A5
:10047000A9F700E069B3E5CF102F66E0269528F2D2
:100480000000ECCF10E11ABF002719C03B50319596
:10049000C31BD04010E11ABF0881033C09F10B34A3
:1004A000F9F0209179001981110F1213EDCF4A81D3
:1004B000441F093651F10D3211F0013E29F7009326
:1004C00081003F915F914F911F910F912F916F91FB
:1004D000CAB7C4FD67CFDF91CF91CFBFCF91189539
:1004E00020918100222369F310917F00112381F56F
:1004F000343082F130937F0020937B0010917C0098
:100500003BE0311B30937C0025C000917F0001301F
:10051000FCF40AE54F7049F43091610034FD1BC0D2
:1005200000936100C2E6D0E01AC030916D0034FD46
:1005300012C000936D00CEE6D0E011C0052710E098
:1005400000C00BBB19C0052710E0221F00C01DC052
:100550004AE502C032ED432FC4E1D0E032E01AB3E5
:10056000106CDF9A0BB31ABB50EC20E869E420FF53
:1005700005270BBB2795179500C000001C3FF0F620
:100580006695A8F7A1F720FF05270BBB27951795C0
:1005900000001C3FC0F629913A9541F70F73109166
:1005A0008000110F0BBBC651D04011F010937900A1
:1005B00010E11ABF00681AB31F73402F4F7355E044
:1005C0005A95F1F70BBB1ABB4BBB7BCF2FEF209398
:1005D0007F00DC01EC91F0E011968C918083109209
:1005E0007F0081E008958FEF0895CF93DF930F92FE
:1005F000CDB7DEB7898380916D0084FF08C061E0CC
:10060000CE01019664DD0F90DF91CF91089584DDD6
:10061000A895F1CF2F923F924F925F926F927F9267
:100620008F929F92AF92BF92CF92DF92EF92FF9202
:100630000F931F93CF93DF93CDB7DEB760970FB6BD
:10064000F894DEBF0FBECDBF19012A013B014C015A
:100650000E87A0E080D101F580E3C7DF9E858AE0A8
:10066000911101C080E260960FB6F894DEBF0FBE14
:10067000CDBFDF91CF911F910F91FF90EF90DF9051
:10068000CF90BF90AF909F908F907F906F905F9032
:100690004F903F902F90A9CFCE0101969C878B87DA
:1006A0000A96FE0131961192E817F907E1F7E0E0AA
:1006B00091E09E0F9D8781E090E08C0F9D1F8E0F33
:1006C000911DE7FD9A95988B8F878AE0A82EB12C13
:1006D000C12CD12CE12CF12C00E010E09101A20101
:1006E000B301C401CFD0205DEF85F889208391014B
:1006F000A201B301C401C8D069017A018B01B82FEE
:10070000F92FED859101A201B301C401A9E023D124
:1007100009F078F44E01FBE08F0E911CF4018291F8
:100720004F01811162DF8B859C8588159905B1F792
:1007300095CF1601270138018B2E9F2EB9CF7F92BE
:100740008F929F92AF92BF92CF92DF92EF92FF92E1
:100750000F931F93CF93DF93CDB7DEB72A970FB6D2
:10076000F894DEBF0FBECDBFE22FB32E8A01762EE6
:10077000F72F982EA92EA0E0EED0B9F480E335DF54
:100780008AE02A960FB6F894DEBF0FBECDBFDF9188
:10079000CF911F910F91FF90EF90DF90CF90BF907E
:1007A000AF909F908F907F9020CFCE0101967C01DB
:1007B0006E019BE0C90ED11CC701DC011D92CD0169
:1007C000AC15BD05D1F7812C8E2F8F70282D082CEC
:1007D000000C330B83942E0D3F1D8A30F8F4805D9E
:1007E000D9018C932E2F3B2DA801672D7F2F892DAA
:1007F0009A2D04E095D0E22FB32E8A01762EF72FA2
:10080000982EA92EA0E0A7D0F9F6F60182916F01EB
:100810008111EBDEEC14FD04C1F7B2CF895CE0CFAF
:1008200000D0CDB7DEB73C9A379A86B1876086B9DB
:100830001F9A359A369A88E198E20FB6F894A895EF
:1008400081BD0FBE91BD86DDD79A80E08150C1F495
:10085000D7987894A895349B11C080916D0084FF3F
:100860000DC0349A84B190E09A83898325B1922B8C
:100870009A83898362E0CE01019629DC4DDCEACFC0
:10088000A895E4CF689401C0E8948F929F92CF938B
:10089000DF9305D0DF91CF919F908F9008958824AA
:1008A0009924F401E401B0E41B2ED4019D158E04BB
:1008B0009F04E007F10738F4FC014B01CA01B901BC
:1008C000AD019E011694220F331F441F551F661F52
:1008D000771F881F991F881C991CEE1FFF1FCC1FB4
:1008E000DD1FAA1FBB1F8A149B04EC05FD05CE0566
:1008F000DF05A007B10748F08A189B08EC09FD093D
:10090000CE09DF09A00BB10B21601A94E1F62EF499
:100910009401AF01BE01CD01000C089597FD109424
:10092000002E083098F00850232F342F452F562FD3
:10093000672F782F892F912DF4CF15949795879550
:100940007795679557954795379527950A95AAF70F
:100950001124002D08950024A7FD00942A173005C6
:100960004005500560057005800590050895F894D0
:02097000FFCFB7
:02097200FF5A2A
:00000001FF
